:020000040000fa
:10000000f07f002055160000ab1b00007b1c000099
:1000100000000000000000000000000000000000e0
:10002000000000000000000000000000971a00001f
:100030000000000000000000971a0000971a00005e
:10004000971a0000971a0000971a0000971a0000ec
:100050000d160000971a0000971a0000971a00006a
:10006000971a0000971a0000971a0000971a0000cc
:1000700045070000971a0000971a0000971a000021
:10008000971a0000971a0000971a0000971a0000ac
:10009000971a0000971a0000971a0000971a00009c
:1000a000971a0000971a0000971a0000971a00008c
:020000040000fa
:1000b000f8b5c046f8bc08bc9e467047ed15000078
:1000c000f8b5c046f8bc08bc9e467047c515000090
:020000040000fa
:1000d000f0b59db00490029105920393002805d0dd
:1000e00083690693002b01d101f088f9974b029a9e
:1000f0009a4263d1049b5b680293029b9b891b0716
:100100006ad5029b1b690693002b65d000220aabbf
:100110000f9220325a7610329a76059e3378002b51
:1001200001d0252b62d1059bf41a0cd02300059a2f
:100130000299049801f0d6fa431c00d17de10f9b8f
:100140001c1905930f943378002b00d175e101221f
:1001500000230aac5242626006a954327c4f521806
:100160000a93e360a36001361370223731780522c9
:10017000380001f09bfd751c002839d12168cb06a1
:1001800004d5532306aa9b1820221a700b0704d506
:10019000532306aa9b182b221a7033782a2b2fd0b0
:1001a000350000210a20e3682a786e1c303a092abb
:1001b00000d86ce0002929d0e36027e0654b029a63
:1001c0009a4202d1049b9b6896e7634b029a9a423b
:1001d00093d1049bdb688fe70299049800f008fd37
:1001e000002893d0012040421db0f0bd013695e7b4
:1001f0000123c01b834022682e0013432360b5e710
:10020000039a08ca002b3cdbe36003922b782e2b69
:1002100009d16b782a2b42d1039b023504cb002aeb
:100220003adb626003934a4e297828360322300075
:1002300001f03cfd002806d04023801b834022684b
:10024000013513432360424f297838006b1c062286
:100250002c300593217601f029fd5322237e06a937
:100260005218692b32d042d8582b77d02ad8002b7d
:1002700000d1f0e0522106a809180b7001230e935b
:100280005ee05b42e36002230b432360bde7434330
:1002900001219b18350087e701225242c1e7002364
:1002a0000a201a000135636029786e1c303909294b
:1002b00003d9002bb7d06260b5e74243012352183f
:1002c0003500f1e7632b32d0642bd3d103990a9b1d
:1002d00020c90391190602d45b0600d52db21c4f2c
:1002e000002d02da2d236d4213700a2655e0702b83
:1002f00000d1a9e010d86f2bbcd103990a9a20c96c
:100300000391110602d4520600d5adb2104f0a2651
:100310006f2b3dd108263be0752beed0782ba9d171
:10032000552306aa9b18782211371a701ae0522119
:10033000039b06ad01cb491908700121039321618c
:1003400000235224137006abe41859e0d4040020b3
:10035000a0180000f4040020b4040020552206a9cf
:1003600052181370039a0a9b20ca03921a0602d4e9
:100370005a0600d5adb20122134202d01f321343f8
:100380000a931026002d03d120230a9a9a430a9239
:10039000532306aa9b1800221a700b9b0c93002b68
:1003a00003db04220a9991430a91002d05d15322bf
:1003b00006a952181400002b0cd0532306aa9b1830
:1003c0001c003100280000f08dfb7b5c013c237099
:1003d000ae423ed9082e0ed101220a9b13420ad00a
:1003e0000b9b06930e9b0793079a069b934202dc96
:1003f0003023013c2370532306aa9b181b1b0e932a
:10040000234b09aa00930aa9029b049800f066fcfa
:10041000431c12d00e9b22000299049801f062f94d
:10042000431c0ad00a9b06939b0729d4099a0d9b6b
:10043000934200da13005a1c24d1029b9b895b066d
:1004400000d5cfe60f98cfe6202322681343236020
:1004500066e70500b5e723611400d1e7292206a964
:10046000012352180498029901f03cf9431ce4d08e
:1004700001340d9b099a06939b1a9c42eedbd5e74b
:100480000024f6e70f9ad31806920f9345e6c0466c
:04049000e51600006d
:020000040000fa
:10049400140500201c00000000000000640300207c
:1004a400c0000000000000008404002030000000b0
:1004b40000000000300500200500000000000000de
:1004c40004000020f40100000000000036050020b4
:1004d40002000000000000003805002004000000b5
:1004e40000000000b4040020200000000000000010
:1004f400d40400202000000000000000f4040020c8
:1005040020000000000000003c0500200400000062
:1005140001000000240400202404002060000000e6
:100524000100000000000000d4040020f4040020b6
:10053400b4040020000000000000000000000000df
:1005440000000000000000000000000000000000a7
:100554000000000000000000000000000000000097
:100564000000000000000000000000000000000087
:100574000000000000000000000000000000000077
:1005840000000000f80100206c01000001000000e0
:100594004300000000000000000000000000000014
:1005a4000000000000000000000000000000000047
:1005b40043000000000000000000000000000000f4
:1005c4000000000000000000000000000000000027
:1005d40043000000000000000000000000000000d4
:1005e4000000000000000000000000000000000007
:1005f40043000000000000000000000000000000b4
:1006040000000000000000000000000000000000e6
:100614004300000000000000000000000000000093
:1006240000000000000000000000000000000000c6
:100634004300000000000000000000000000000073
:1006440000000000000000000000000000000000a6
:100654004300000000000000000000000000000053
:100664000000000000000000000000000000000086
:10067400951c0000871b000000000000ec0a00002d
:10068400491d0000481d0000481d0000481d0000d1
:10069400481d0000481d0000481d0000481d0000c2
:1006a400481d0000481d0000ffffffffffffffff84
:1006b400ffffffffffff00000100415343494900d2
:1006c4000000000000000000000000000000000026
:1006d40000000000000000000000415343494900ad
:1006e4000000000000000000000000000000000006
:1006f4000000000000000000000000004005002091
:100704000400000000000000440500200400000074
:1007140000000000000000200400000000000000b1
:100724004805002004000000000000000000000054
:10073400000000002222222222222222222222221d
:020000040000fa
:10074400f8b5ce46474680b55b4b9b7d002b17d052
:10075400594a137edbb2927d52b2002a14db564a08
:10076400137edbb2927dd20702d5db0700d588e089
:10077400514a137edbb2927d520701d55b0752d4f6
:100784000cbc90469946f8bd5bb2002be7da4a4ba5
:100794005b8b07221340e2d0484ce38501f0e0f87c
:1007a400454b84221a752c230022e254636a002be1
:1007b400d5d0424a906a9847d1e78368591c816032
:1007c4006146cb5c1385b168137e4d462b420fd036
:1007d4008c420dd953683b40012beed143469b68b4
:1007e400591c4546a9605b0061465b5a1385eae7dc
:1007f400324b9a685b689a42bad3304b00221a751e
:100804005a602d4a01211175db68002bb0d02b4aa8
:1008140010699847ace7294988690a6a541c0c6234
:100824005200135217e0254a2c23d35c002ba7d087
:10083400224b1a6adb699a42a2d21f4a138d9bb2d9
:10084400516807220a40012ae5d01c4a9069116abe
:100854004c1c14624354194b1a6adb699a4200d047
:100864008ee7164b00222c215a54da61124a583171
:1008740011755b6a002b00d182e7104a906a984791
:100884007ee70e4b1b7d002b00d171e70b4b9a6862
:100894005c68094b1b7edb07aad5a242a8d2074b92
:1008a4001b689c46044a0727044b984618001e0000
:1008b400012399468ee7c0460014004284040020b8
:020000040000fa
:1008c400f7b58a8905000c0013075dd44b68002b2b
:1008d40004dc0b6c002b01dc0020febde76a002f5a
:1008e400fad000232e682b6080235b011a4034d099
:1008f400606da3895b0706d56368c01a636b002b20
:1009040001d0236cc01a0200216a00232800e76a80
:10091400b847a189431c06d12b681d2b31d82c4a1a
:10092400da40d3072dd50023636023692360cb0409
:1009340005d5431c02d12b68002b00d16065616b87
:100944002e600029c8d023004433994202d02800e5
:1009540000f096fb00206063bfe70123216a2800b2
:10096400b847431cc5d12b68002bc2d01d2b01d026
:10097400162b01d12e60afe74023a2891343a38134
:10098400abe740230b43fae70f69002fa4d00b68b1
:100994000f60db1b01930023920700d14b69a36016
:1009a400019b002b00dc97e7019b3a00216a280099
:1009b400a66ab047002806dc40230120a2894042f1
:1009c4001343a38189e7019b3f181b1a0193e7e7af
:0409d40001004020be
:020000040000fa
:1009d800002243088b4274d303098b425fd3030a76
:1009e8008b4244d3030b8b4228d3030c8b420dd389
:1009f800ff22090212ba030c8b4202d31212090217
:100a080065d0030b8b4219d300e0090ac30b8b4254
:100a180001d3cb03c01a5241830b8b4201d38b0302
:100a2800c01a5241430b8b4201d34b03c01a5241a7
:100a3800030b8b4201d30b03c01a5241c30a8b42ea
:100a480001d3cb02c01a5241830a8b4201d38b02d5
:100a5800c01a5241430a8b4201d34b02c01a524179
:100a6800030a8b4201d30b02c01a5241cdd2c309eb
:100a78008b4201d3cb01c01a524183098b4201d367
:100a88008b01c01a524143098b4201d34b01c01a52
:100a9800524103098b4201d30b01c01a5241c308ca
:100aa8008b4201d3cb00c01a524183088b4201d339
:100ab8008b00c01a524143088b4201d34b00c01a25
:100ac8005241411a00d20146524110467047ffe791
:100ad80001b5002001f058f902bdc0460029f7d041
:040ae80076e77047f6
:020000040000fa
:100aec0000202020202020202020282828282820f2
:100afc0020202020202020202020202020202020ea
:100b0c002088101010101010101010101010101051
:100b1c001004040404040404040404101010101041
:100b2c00101041414141414101010101010101010b
:100b3c00010101010101010101010101101010105d
:100b4c0010104242424242420202020202020202dd
:100b5c000202020202020202020202021010101031
:100b6c002000000000000000000000000000000059
:100b7c000000000000000000000000000000000069
:100b8c000000000000000000000000000000000059
:100b9c000000000000000000000000000000000049
:100bac000000000000000000000000000000000039
:100bbc000000000000000000000000000000000029
:100bcc000000000000000000000000000000000019
:100bdc000000000000000000000000000000000009
:010bec000008
:020000040000fa
:020bee0070474e
:020000040000fa
:100bf000364b70b51d6806000c00002d05d0ab69a2
:100c0000002b02d1280000f0f9fb314b9c420fd1a0
:100c10006c680c23e25e93b219072dd4d90611d467
:100c200009230120336037331343a381404270bd51
:100c3000284b9c4201d1ac68ebe7274b9c42e8d1a2
:100c4000ec68e6e75b0713d5616b002908d0230049
:100c50004433994202d0300000f014fa0023636359
:100c60002422a3899343a381002363602369236023
:100c70000823a2891343a3812369002b0bd1a02150
:100c80008022a389890092000b40934203d0210067
:100c9000300000f0adf90123a289134011d00023e8
:100ca000a36063695b42a361002023698342bed1d4
:100cb0000c23e25e1306bad540231343a381013807
:100cc000b5e7920700d46369a360ede73c05002017
:0c0cd000d4040020f4040020b404002030
:020000040000fa
:100cdc00f7b5150001938a680b6900900c009342dc
:100cec0000da130022002b6043321278002a01d064
:100cfc0001332b6023689b0602d52b6802332b60d3
:100d0c00062723681f4027d0230043331b785a1e25
:100d1c0093412268920630d4220001994332009804
:100d2c00089eb047431c25d0062320682a68e1683a
:100d3c0003400025042b03d18d1aeb43db171d4018
:100d4c00a3682269934201dd9b1aed180027bd426e
:100d5c0020d1002010e00137e3682a689b1abb42bf
:100d6c00d2dd22000123193201990098089eb04768
:100d7c00431cf0d101204042febd3020e11843312c
:100d8c00087021005a1c45310978a21843320233ed
:100d9c001170c1e7220001231a3201990098089eb4
:0a0dac00b047431ce6d00137d1e741
:020000040000fa
:020db600704784
:020000040000fa
:100db800f8b505000e001400002804d08369002b44
:100dc80001d100f017fb294b9c4234d16c68a36910
:100dd800a360a3891b0738d52369002b35d00c23c2
:100de800e25e80239b01f7b2f6b21a4236d023683e
:100df8002269981a6369834205dc2100280000f003
:100e080089fb002827d1a3680130013ba360236830
:100e18005a1c22601f706369834204d0a389db07d0
:100e280007d50a2e05d12100280000f073fb002801
:100e380011d13000f8bd0e4b9c4201d1ac68c6e719
:100e48000c4b9c42c3d1ec68c1e721002800fff796
:100e5800cbfe0028c3d001267642eae71343a381dc
:100e6800226e054b13402366c1e7c046d404002018
:0c0e7800f4040020b4040020ffdfffffa2
:020000040000fa
:100e8400f8b50323cd1c9d43083506000c2d1fd255
:100e94000c25a9421ed8300000f025ff25490a6818
:100ea4001400002c1ad1244f3b68002b04d12100dc
:100eb400300000f079fe38602900300000f074fe44
:100ec400431c2ad10c2330003360fff78efe03e06d
:100ed400002ddeda0c2333600020f8bd23685b1b91
:100ee40018d40b2b03d92360e418256003e063684e
:100ef400a2420dd10b603000fff777fe20000722dd
:100f04000b30231d9043c21ae7d01b1aa350e4e709
:100f14005360f0e722006468c3e70323c41c9c43c6
:100f2400a042e2d0211a300000f03efe431cdcd186
:0c0f3400c8e7c04640050020440500202e
:020000040000fa
:100f4000214b00229a619a8c80218a439a841a004c
:100f50001023d1680b42fcd01c4b1a68920e3f2a1a
:100f60002fd01b4b1b689b059b0d92021343164a07
:100f700093621023d1680b42fcd0134b02229a8457
:100f80001a001023d1680b42fcd0124b124a5a604f
:100f90001a0053785bb2002bfbdb0e4b0f4a5a60f2
:100fa0001a0053785bb2002bfbdb0a4b0c4a5a80c9
:100fb0000c4a5a800c4b0d4a1a62034b00221a62eb
:100fc0007047203acde7c04600080040246080000a
:100fd00028608000000c00400103010000070100b0
:100fe00005410000174000000004004020000100ff
:020000040000fa
:100ff000f7b502268b8905000c00334206d00b00a2
:1010000047330b600b6101234b61f7bd01ab6a46af
:1010100000f0b0fa009907002800fff733ff00281e
:101020000ed10c22a35e9a05efd4032293431e43f4
:1010300023004733236023610123a6816361e4e732
:101040000f4bab628023a28920601343a381009bd6
:1010500020616361019b002b0dd00e23e15e28000f
:1010600000f0dafd002806d00322a38993431a007a
:1010700001231343a381a0893843a081c5e7c0465b
:04108000ed1c000063
:020000040000fa
:1010840070b50500002910d00c1f2368002b00da6e
:10109400e418280000f027fe1d4a1368002b05d130
:1010a400636014602800fff7a0fd70bda34209d956
:1010b400216860188342f3d118685b684118216085
:1010c400eee713005a68002a01d0a242f9d9196840
:1010d4005818a0420bd12068091858181960824288
:1010e400e0d110685268411819605a60dae7a042ea
:1010f40002d90c232b60d5e721686018824203d102
:10110400106852684118216062605c60cae7c0469a
:041114004005002072
:020000040000fa
:10111800f0b5c6461f4a204b00b50021934203d2c2
:10112800197001339342fbd10b231c4a9c46083ba0
:1011380098461368546819000026214311d01700f7
:1011480091680c3700290fd11a19002c03d01e7092
:1011580001339342fbd13a001368546819002143c4
:10116800edd104bc9046f0bd6146c91a1d1951184d
:10117800002c05d05a1c505c187013009542f9d108
:10118800434623405a1e9341a4081c19a4003f1942
:101198003a00e1e704000020000000209404000069
:020000040000fa
:1011a80030b51d4a137801210b43137053785bb295
:1011b800002bfbdb184990231b068b610023cb61b6
:1011c8008020c860154b10221a721a7520241a55ef
:1011d8000c341a550c341a550c341a550c341a554b
:1011e8000c3407251d550c341a550c341a551a544d
:1011f8000c301a540c301a540c301a540c301a543f
:101208000c301a540b78022213430b700a005378df
:101218005bb2002bfbdb30bd0018004064030020ec
:020000040000fa
:10122800f8b51c4b07001e68b369002b02d13000cb
:1012380000f0e0f84836b4687368013b04d53368b9
:10124800002b1cd03668f6e70c22a55e002d14d1c1
:101258002000114b256625606560a560e360256167
:101268006561a56108222900583000f04bfd6563cf
:10127800a563a564e5642000f8bd6434dde70421b6
:10128800380000f097fb041e3060dbd10c233b6074
:0c129800f1e7c046941d00000100ffffbc
:020000040000fa
:1012a400f0b585b001900e00140000f025fd012872
:1012b4000bd1731efe2b08d8050002ab1e7100274c
:1012c400af4212d1300005b0f0bd230032005833d4
:1012d40003a9019800f09cfb0500431cefd14023b7
:1012e400a2891343a3810600ece703abd95da3688d
:1012f400013ba360002b04daa269934207db0a29ad
:1013040005d023685a1c226019700137d8e72200df
:0c1314000198fff74ffd431cf7d1e4e700
:020000040000fa
:1013200070b5154b188880b20222144900f00efdea
:10133000002000f02dfb00221149072000f0acfb3b
:101340000d4e104d104c328892b22900200000f052
:1013500033fafa214900200000f084f864220b4996
:1013600003e0013a92b2002aedd00b00013b9bb2a0
:10137000002bfbd1f5e7c0463605002030050020e4
:101380003d1c0000c41c000004000020ffff000002
:020000040000fa
:10139000f0b517008db006000c002522164902a8f2
:1013a00000f09afcbb1e0025222b1cd8631e009364
:1013b00002ab019339003000fff794fb019a6b1cdc
:1013c000525c0099ca54b74212d90022e25422005a
:1013d0002b00e91a8b4208dd1178e05c1070e154b3
:1013e0000132013bf5e725702c0020000db0f0bd67
:0c13f0001d000600dee7c046601b000088
:020000040000fa
:1013fc00836913b50400002b28d18364c36403658f
:10140c00134b144a1b6882620193984201d1012349
:10141c0083612000fff702ff60602000fff7fefef3
:10142c00a0602000fff7fafe0022e0600421606853
:10143c0000f076f901220921a06800f071f902226e
:10144c001221e06800f06cf90123a36113bdc046c2
:08145c00941d0000ed1c0000ce
:020000040000fa
:1014640070b5002826d0144b1a7d0023002a1fd102
:10147400114b1860596001321a7500230f4c012575
:10148400072602e0c25c22850133227e2a4209d06b
:10149400994207d062683240012af3d15a00825a35
:1014a4002285f1e7044a9360044b01229a750123d3
:1014b400180070bd0023fbe78404002000140042e0
:020000040000fa
:1014c400114b124a1a60124a9a81c02292025a603f
:1014d4001a00d369002bfcd10b4a136802210b4379
:1014e4001360d369002bfcd10a4b00229a61da61a4
:1014f4001a622c215a545a621a605a609a601a75f8
:10150400da60da857047c046001400428401004066
:081514002bf6ffff8404002008
:020000040000fa
:10151c000b6970b505000c00002b01d1002070bdcb
:10152c00002804d08369002b01d1fff761ff0b4b1e
:10153c009c4209d16c680c22a35e002beed02100da
:10154c002800fff7b9f9eae7054b9c4201d1ac68da
:10155c00f1e7044b9c42eed1ec68ece7d40400209c
:08156c00f4040020b404002087
:020000040000fa
:1015740070b50e001d000e23c95e90b01400002942
:1015840007da00232b60b3891b0611d48023db0008
:101594000fe001aa00f02cfb0028f2dbf022029bf2
:1015a40012021340054a9b185a4253412b60ede73f
:1015b40040230020236010b070bdc04600e0ffff50
:020000040000fa
:1015c40010b5064c2378002b07d1054b002b02d015
:1015d400044800e000bf0123237010bd140500205f
:1015e4000000000000000000044b10b5002b03d0e5
:1015f4000349044800e000bf10bdc04600000000dd
:081604001805002000000000a1
:020000040000fa
:10160c00f0b5c64600b50e4d00240e4f012398468a
:10161c0004e03e6101340c35102c0ed02a7ae3b272
:10162c009a42f7d13b694646a6401e42f2d02b683f
:10163c00002beed068689847ebe704bc9046f0bdf1
:08164c006403002000180040b7
:020000040000fa
:1016540010b50a4b98470a4b9847fff75bfd094bb7
:10166400ff229343084a9360084b9847084b9847d6
:10167400084b9847fff752fefee7c046c31c000024
:10168400c31c00000000000000ed00e09d160000f7
:08169400c31c0000c31c000090
:020000040000fa
:10169c0070b500260c4d0d4c641ba410a64209d14c
:1016ac000026fef7fffc0a4d0a4c641ba410a64250
:1016bc0005d170bdb300eb5898470136eee7b30087
:1016cc00eb5898470136f2e7bc000000bc00000064
:0816dc00bc000000c00000008a
:020000040000fa
:1016e400f8b50d00096e06001400d718890418d542
:1016f4009f08bf00d719bc4201d1002008e02a008e
:1017040002cc300000f0a8fa431cf4d1012040427e
:10171400f8bd21782a00300000f0a6f90134431cfa
:08172400f4d0bc42f5d1e8e766
:020000040000fa
:10172c00002310b50400036043608360818103666d
:10173c00c28103614361836119000822583000f0b3
:10174c00dffa054b24626362044ba362044be36231
:10175c00044b236310bdc046c11a00006918000079
:08176c00e9190000291d00002d
:020000040000fa
:10177400f7b504000700002601914834002c01d17c
:101784003000febd6368a5680093009b013b009395
:1017940001d52468f2e7ab89012b08d90e22ab5e90
:1017a400013304d029003800019b9847064364356f
:0217b400ebe761
:020000040000fa
:0217b60070477a
:020000040000fa
:1017b8000eb410b500249bb00a4b1daa02ca0693aa
:1017c8000393094b0190059001a804931994009282
:1017d80000f050fa019b1c701bb010bc08bc03b091
:0c17e8001847c046ffffff7f0802ffff0c
:020000040000fa
:1017f40070b50c1e0ed0002a0cd01500022801d999
:10180400280070bd084b002b06d01100200000e01a
:1018140000bff5e70025f3e78e1820780134fff7c1
:0c182400c8ffb442f9d1ebe7000000005f
:020000040000fa
:1018300010b5bff35f8f62b60a4bc1229200995870
:10184000ff24a143c0200143995010221a60c321f4
:1018500089005a58a24302435a50802252011a600a
:0818600010bdc04600e100e0ec
:020000040000fa
:10186800f8b51f008b8905000c001600db0505d5af
:101878000e23c95e0022022300f046f9a389054a17
:1018880028001340a38132000e23e15e3b0000f0e4
:0818980027f9f8bdffefffff87
:020000040000fa
:1018a0003031323334353637383941424344454696
:1018b000003031323334353637383961626364652c
:1018c0006600232d302b2000686c4c006566674550
:0318d00046470088
:020000040000fa
:1018d4000a4b802119614722052098540f3204389d
:1018e40098541b3a013098548022d2055a50103132
:1018f4005a50de22002199547047c04600440041ea
:020000040000fa
:10190400931e10b50c00222b04d900231c000b706d
:10191400200010bd0a2a09d1002807da2d230b70f4
:10192400012140426118fff731fdf1e70021f9e799
:020000040000fa
:10193400084a1368002b09d007491818884202d8ae
:1019440010601800704701235b42fae7034b1360f1
:10195400f2e7c0464805002050070020500500204b
:020000040000fa
:10196400094b5b8b5b070dd0074b80221a76793ac3
:101974005a831b7e5b0705d5034b04211a8d1a7eff
:0c1984000a42fbd17047c046001400422c
:020000040000fa
:1019900010b5094b06225a60fff79cfffff7d0fafb
:1019a000fff790fd00f0baf9fff705fafff7fcfb2f
:0c19b000fff73eff10bdc04600400041a4
:020000040000fa
:1019bc0070b564254a1e55430e0029007031fff79f
:1019cc005bfa041e08d000212a00016046600c302e
:0c19dc00a060643200f094f9200070bd9f
:020000040000fa
:1019e80070b50c000e25495f00f08ef8a389421ce3
:1019f80003d1054a1340a38170bd802252011343cd
:0c1a0800a3816065f8e7c046ffefffff18
:020000040000fa
:101a14007fb51d00084b0400e0331e682b0000292d
:101a240001d10a0001a9b047431c03d100232b6054
:0c1a34008a33236004b070bdf80100206c
:020000040000fa
:101a400070b500290fd0002a0dd01500002808d14c
:101a50000c008e18012000f099f920700134b44276
:0c1a6000f8d1280070bd0025fbe7c0464f
:020000040000fa
:101a6c00936810b5013b9360002b04da9469a34290
:101a7c0007db0a2905d01368581c10601970080080
:0a1a8c0010bdfff793f90100f9e720
:020000040000fa
:021a9600fee769
:020000040000fa
:101a980030b543001b189b00064ce3181b7a8342a1
:101aa80000d030bd43001d18ad00295160194260b7
:081ab800f7e7c04664030020bb
:020000040000fa
:101ac00070b50c000e25495f00f036f8002803dbe6
:101ad000636d1b18636570bda389024a1340a3811f
:081ae000f9e7c046ffefffff2c
:020000040000fa
:101ae80070b50500080011000022064c22601a009b
:101af80000f040f9431c03d12368002b00d02b6071
:081b080070bdc0460000002082
:020000040000fa
:101b100070b50500080011000022064c22601a0072
:101b200000f024f9431c03d12368002b00d02b6064
:081b300070bdc046000000205a
:020000040000fa
:101b380070b50500080011000022064c22601a004a
:101b480000f014f9431c03d12368002b00d02b604c
:081b580070bdc0460000002032
:020000040000fa
:101b60003031323334353637383961626364656613
:101b70006768696a6b6c6d6e6f707172737475767d
:051b80007778797a007e
:020000040000fa
:101b860082b0002900d101a9101e06d0002b06d074
:101b960013780b601078431e984102b070470220fc
:041ba6004042fae7d8
:020000040000fa
:021baa00fee754
:020000040000fa
:101bac00002370b5064c050008002360fff7bcfe4f
:101bbc00431c03d12368002b00d02b6070bdc046a2
:041bcc0000000020f5
:020000040000fa
:101bd000002370b5064c05000800236000f0baf839
:101be000431c03d12368002b00d02b6070bdc0467e
:041bf00000000020d1
:020000040000fa
:101bf400002370b5064c050008001100236000f0b6
:101c0400abf8431c03d12368002b00d02b6070bdbc
:041c140000000020ac
:020000040000fa
:101c1800002370b5064c05000800236000f09ef80c
:101c2800431c03d12368002b00d02b6070bdc04635
:041c38000000002088
:020000040000fa
:101c3c00054a9c238021c905d150044a13880133dd
:101c4c009bb213807047c04600440041360500200b
:020000040000fa
:101c5c0010b50c23d45e80239b011c4204d11c4381
:0e1c6c009481146e23431366fff716fb10bd20
:020000040000fa
:021c7a00fee783
:020000040000fa
:101c7c0010b513000a00010002480068fef722fab2
:081c8c0010bdc0463c0500201c
:020000040000fa
:101c94000b1e04d0ff2a04d98a2303608b3b18004f
:081ca40070470a700123fae702
:020000040000fa
:101cac00c9b28218904201d10020704703788b4250
:061cbc00fbd00130f6e749
:020000040000fa
:021cc200704769
:020000040000fa
:101cc400436f756e742076616c203a2025640d0a8a
:041cd4000000c04606
:020000040000fa
:101cd800002310b59a4200d110bdcc5cc454013326
:021ce800f8e71b
:020000040000fa
:021cea00704741
:020000040000fa
:101cec0010b50249fff740fd10bdc0461d150000a0
:020000040000fa
:101cfc009423024a5b00d05c7047c046f801002078
:020000040000fa
:101d0c0003001218934200d1704719700133f9e7a0
:020000040000fa
:0c1d1c00014b82225a60704700400041d9
:020000040000fa
:0c1d280010b50e23c95efff74fff10bd81
:020000040000fa
:0c1d340080239b0100204b607047c046dc
:020000040000fa
:0b1d40004300504f53495800002e0094
:020000040000fa
:081d4c0010b5fff7d9fd10bd31
:020000040000fa
:081d540010b500f015f810bdf8
:020000040000fa
:081d5c0010b5fff7e9ff10bd0f
:020000040000fa
:081d640010b500f017f810bde6
:020000040000fa
:081d6c0010b500f015f810bde0
:020000040000fa
:081d740010b5fff763fe10bd7e
:020000040000fa
:081d7c0010b5fff739fd10bda1
:020000040000fa
:081d8400012040427047c046f7
:020000040000fa
:041d8c00002070477c
:020000040000fa
:041d90007047c04692
:020000040000fa
:041d94002404002003
:020000040000fa
:041d9800012070476f
:020000040000fa
:041d9c00002070476c
:020000040000fa
:0200000400807a
:0440000077c700d8a6
:020000040000fa
:0200000400807a
:044004005c00ffff5e
:00000001FF
