:020000040000fa
:10000000f87f0020c1020000990400009b0400005a
:1000100000000000000000000000000000000000e0
:100020000000000000000000000000009704000035
:10003000000000000000000097040000970400008a
:100040009704000097040000970400009704000044
:1000500009030000970400009704000097040000c3
:100060009704000097040000970400009704000024
:100070009704000097040000970400009704000014
:100080009704000097040000970400009704000004
:1000900097040000970400009704000097040000f4
:1000a00097040000970400009704000097040000e4
:020000040000fa
:1000b000f8b5c046f8bc08bc9e467047a1020000d7
:1000c000f8b5c046f8bc08bc9e46704779020000ef
:020000040000fa
:1000d0001e4b00229a619a8c80218a439a841a00ce
:1000e0001023d1680b42fcd0194b1a68920e3f2a9c
:1000f0002ad0184b1b689b059b0d92021343134a91
:1001000093621023d1680b42fcd0104b02229a84d8
:100110001a001023d1680b42fcd00f4b0f4a5a60d3
:100120001a0053785bb2002bfbdb0b4b0c4a5a6076
:100130001a0053785bb2002bfbdb074b094a5a804d
:10014000024b00221a627047203ad2e700080040b2
:100150002460800028608000000c00400103010042
:08016000000701000541000049
:020000040000fa
:10016800f0b5c6461f4a204b00b50021934203d282
:10017800197001339342fbd10b231c4a9c46083b60
:1001880098461368546819000026214311d01700b7
:1001980091680c3700290fd11a19002c03d01e7052
:1001a80001339342fbd13a00136854681900214384
:1001b800edd104bc9046f0bd6146c91a1d1951180d
:1001c800002c05d05a1c505c187013009542f9d1c8
:1001d800434623405a1e9341a4081c19a4003f1902
:1001e8003a00e1e70000002000000020980300002a
:020000040000fa
:1001f80030b51d4a137801210b43137053785bb255
:10020800002bfbdb1849c0231b068b610023cb6145
:100218008020c860154b10221a721a7520241a55ae
:100228000c341a550c341a550c341a550c341a550a
:100238000c3407251d550c341a550c341a551a540c
:100248000c301a540c301a540c301a540c301a54fe
:100258000c301a540b78022213430b700a0053789f
:100268005bb2002bfbdb30bd001800400000002013
:020000040000fa
:1002780010b5064c2378002b07d1054b002b02d074
:10028800044800e000bf0123237010bdc000002017
:100298000000000000000000044b10b5002b03d044
:1002a8000349044800e000bf10bdc046000000003c
:0802b800c4000020000000005a
:020000040000fa
:1002c00010b50a4b98470a4b9847fff74dff094b6b
:1002d000ff229343084a9360084b9847084b98477e
:1002e000084b984700f0bcf8fee7c0469d040000ac
:1002f0009d0400000000000000ed00e0510300003c
:080300009d0400009d040000b3
:020000040000fa
:10030800f0b5c64600b50e4d00240e4f01239846a1
:1003180004e03e6101340c35102c0ed02a7ae3b289
:100328009a42f7d13b694646a6401e42f2d02b6856
:10033800002beed068689847ebe704bc9046f0bd08
:08034800000000200018004035
:020000040000fa
:1003500070b500260c4d0d4c641ba410a64209d1ab
:100360000026fff7a5fe0a4d0a4c641ba410a64206
:1003700005d170bdb300eb5898470136eee7b300e6
:10038000eb5898470136f2e7bc000000bc000000c3
:08039000bc000000c0000000e9
:020000040000fa
:10039800c00000201c000000000000000000002039
:1003a800c000000000000000dc0000200400000085
:1003b80000000000000000000000000022222222ad
:020000040000fa
:1003c80010b5084b06225a6000f022f8fff77cfeb1
:1003d80000f056f800f05af8fff70aff00f02af884
:0803e80010bdc04600400041b9
:020000040000fa
:1003f00030b543001b189b00064ce3181b7a834260
:1004000000d030bd43001d18ad0029516019426075
:08041000f7e7c04600000020e0
:020000040000fa
:10041800074b802119614722052098548022d20574
:100428005a5010315a50de22002199547047c04664
:04043800004400413b
:020000040000fa
:10043c00bff35f8f62b6064ac12189005358ff2073
:10044c0083433f3803435350102313607047c04617
:04045c0000e100e0db
:020000040000fa
:1004600010b50020fff7b0ff002202490720fff778
:08047000bffffee77904000064
:020000040000fa
:10047800024a9c238021c905d1507047004400419d
:020000040000fa
:0c048800014b82225a6070470040004186
:020000040000fa
:020494007047af
:020000040000fa
:02049600fee77f
:020000040000fa
:02049800fee77d
:020000040000fa
:02049a00fee77b
:020000040000fa
:02049c007047a7
:020000040000fa
:0200000400807a
:0440000077c700d8a6
:020000040000fa
:0200000400807a
:044004005c00ffff5e
:00000001FF
